:020000040000FA
:100000000C9462000C948A000C948A000C948A0070
:100010000C948A000C948A000C948A000C948A0038
:100020000C948A000C948A000C948A000C9493041B
:100030000C948A000C948A000C948A000C948A0018
:100040000C94F1030C948A000C9461040C943B040E
:100050000C948A000C948A000C948A000C948A00F8
:100060000C948A000C948A000000000023002600F3
:10007000290000000000240027002A0000000000E2
:10008000250028002B0004040404040404040202D4
:100090000202020203030303030301020408102007
:1000A0004080010204081020010204081020000012
:1000B0000008000201000003040700000000000027
:1000C0000000940511241FBECFEFD8E0DEBFCDBFE6
:1000D00011E0A0E0B1E0E0E0F3E102C005900D9294
:1000E000AA31B107D9F721E0AAE1B1E001C01D9220
:1000F000AE3EB207E1F710E0C2E6D0E004C02197BF
:10010000FE010E947809C136D107C9F70E940B068B
:100110000C947E090C940000E6E2F1E0A089B1891C
:1001200082E08C93A485B5851C92A685B7858FEC5B
:100130008C93108EA489B58986E08C93A289B389AB
:100140008C9180618C93A289B3898C9188608C9307
:10015000A289B3898C9180688C930288F389E02D01
:1001600080818F7D8083089590E0FC01E255FF4FF0
:100170002491FC01E656FF4F3491FC01EA57FF4FF2
:10018000E491EE23C9F0222339F0233001F1A8F4E1
:10019000213019F1223029F1F0E0EE0FFF1FE45871
:1001A000FF4FA591B4918FB7F894EC91611126C0DF
:1001B00030953E233C938FBF08952730A9F0283017
:1001C000C9F0243049F7809180008F7D03C0809171
:1001D00080008F7780938000DFCF84B58F7784BDD8
:1001E000DBCF84B58F7DFBCF8091B0008F7780937C
:1001F000B000D2CF8091B0008F7DF9CF3E2BDACF07
:10020000CF93DF9390E0FC01E656FF4F24918A578D
:100210009F4FFC0184918823D1F090E0880F991FB3
:10022000FC01EE58FF4FA591B491FC01E458FF4F3B
:10023000C591D49161110EC09FB7F8948C91E22FB3
:10024000E0958E238C932881E223E8839FBFDF9182
:10025000CF9108958FB7F894EC91E22BEC938FBF78
:10026000F6CF8E50806480937C0080917A00806409
:1002700080937A0080917A0086FDFCCF809178008F
:100280009091790008953FB7F89480912201909160
:100290002301A0912401B091250126B5A89B05C09A
:1002A0002F3F19F00196A11DB11D3FBFBA2FA92FF5
:1002B000982F8827BC01CD01620F711D811D911DF2
:1002C00042E0660F771F881F991F4A95D1F708955E
:1002D0008F929F92AF92BF92CF92DF92EF92FF9256
:1002E0004B015C010E9443016B017C010E944301B0
:1002F0006C197D098E099F09683E7340810591053F
:10030000A8F321E0821A9108A108B10888EEC80E6E
:1003100083E0D81EE11CF11C81149104A104B104F6
:1003200029F7FF90EF90DF90CF90BF90AF909F9014
:100330008F900895AF92BF92CF92DF92EF92FF928B
:100340000F931F93CF93DF936C017B018B01040FFD
:10035000151FEB015E01AE18BF08C017D10759F099
:100360006991D601ED91FC910190F081E02DC601DB
:100370000995892B79F7C501DF91CF911F910F91D5
:10038000FF90EF90DF90CF90BF90AF900895FC0169
:10039000538D448D252F30E0842F90E0821B930BEA
:1003A000541710F0CF96089501970895FC01918D90
:1003B000828D981761F0A28DAE0FBF2FB11D5D9693
:1003C0008C91928D9F5F9F73928F90E008958FEF35
:1003D0009FEF0895FC01918D828D981731F0828DE9
:1003E000E80FF11D858D90E008958FEF9FEF089540
:1003F000FC01918D228D892F90E0805C9F4F821BA4
:1004000091098F739927089586E291E00E94F8017F
:1004100021E0892B09F420E0822F089580E090E00C
:10042000892B29F00E94040281110C940000089588
:10043000FC01A48DA80FB92FB11DA35ABF4F2C9159
:10044000848D90E001968F739927848FA689B78950
:100450002C93A089B1898C91837080648C93938D47
:10046000848D981306C00288F389E02D80818F7DEA
:1004700080830895EF92FF920F931F93CF93DF93A2
:10048000EC0181E0888F9B8D8C8D98131AC0E889D0
:10049000F989808185FF15C09FB7F894EE89FF899F
:1004A0006083E889F98980818370806480839FBF3D
:1004B00081E090E0DF91CF911F910F91FF90EF903D
:1004C0000895F62E0B8D10E00F5F1F4F0F7311274D
:1004D000E02E8C8D8E110CC00FB607FCFACFE88988
:1004E000F989808185FFF5CFCE010E941802F1CFF6
:1004F000EB8DEC0FFD2FF11DE35AFF4FF0829FB7FC
:10050000F8940B8FEA89FB8980818062CFCFCF93EB
:10051000DF93EC01888D8823B9F0AA89BB89E8892B
:10052000F9898C9185FD03C0808186FD0DC00FB6D1
:1005300007FCF7CF8C9185FFF2CF808185FFEDCF4F
:10054000CE010E941802E9CFDF91CF910895CF929A
:10055000DF92EF92FF92CF93DF93EC01603282E063
:100560007807CCF5653B710514F064EB70E0898188
:1005700028E830E0281B310987FD3395220F331F0F
:10058000220F331F6901330FEE08FF088A8128E527
:1005900032E0281B310987FD3395220F331F220FCC
:1005A000331F032E000C440B550B2C193D094E092B
:1005B0005F09DB0177FF02C0B0E0A0E00E94B10755
:1005C00024EB30E040E050E00E948707C20ED31ECB
:1005D000E41EF51EB601E881EC3070F5298188E84B
:1005E00090E0821B910927FD9395880F991F880F32
:1005F000991F681779077CF02A8188E592E0821BB1
:10060000910927FD9395880F991F880F991F6817E7
:1006100079070CF4CB010297880F991F4FB7F89414
:100620002E2F30E0F901EE0FFF1FE20FF31FED5305
:10063000FE4F928381834FBFDF91CF91FF90EF9068
:10064000DF90CF9008951F93CF93DF93EC01162F87
:1006500088818C3008F04EC061E0812F0E9400013B
:100660008881282F30E0F901EE0FFF1FE20FF31F02
:10067000ED53FE4F1F736081607C612B6083198294
:100680001A822CE0622F0E944409829FB00111243B
:1006900030E020E0AB01420F531FFA01EE0FFF1FC5
:1006A000E40FF51FED53FE4F908196FD16C02F5FAE
:1006B0003F4F2C30310571F781110FC0109280002F
:1006C00082E0809381001092850010928400B19A9C
:1006D00080916F00826080936F00E8818E2F90E0A0
:1006E000FC01EE0FFF1FE80FF91FED53FE4F808155
:1006F000806480838881DF91CF911F910895FC01F0
:1007000001900020E9F73197AF01481B590BBC015C
:1007100086E291E00C949A018F929F92AF92BF92E1
:100720000F931F93CF93DF93CDB7DEB7A1970FB68B
:10073000F894DEBF0FBECDBF19A2423008F44AE0E4
:100740008E010F5D1F4F842E912CB12CA12CA50181
:1007500094010E94B907E62FB901CA01EA30F4F406
:10076000E05DD801EE938D01232B242B252B79F707
:1007700090E080E0109719F0CD010E947F03A196D0
:100780000FB6F894DEBF0FBECDBFDF91CF911F91A2
:100790000F91BF90AF909F908F900895E95CE1CF4B
:1007A000CF92DF92EF92FF92CF93DF936B017C01A8
:1007B0006DE286E291E00E943A02EC01662777271B
:1007C000CB016C197D098E099F094AE00E948C03B8
:1007D0008C0F9D1FDF91CF91FF90EF90DF90CF9016
:1007E00008951F920F920FB60F9211242F933F93EB
:1007F0008F939F93AF93BF9380911E0190911F01A0
:10080000A0912001B091210130911D0123E0230F1F
:100810002D3758F50196A11DB11D20931D01809320
:100820001E0190931F01A0932001B093210180919C
:10083000220190912301A0912401B09125010196FC
:10084000A11DB11D8093220190932301A093240147
:10085000B0932501BF91AF919F918F913F912F91BF
:100860000F900FBE0F901F90189526E8230F029649
:10087000A11DB11DD2CF1F920F920FB60F9211245E
:100880002F933F934F935F936F937F938F939F9398
:10089000AF93BF93EF93FF9386E291E00E9418021B
:1008A000FF91EF91BF91AF919F918F917F916F9148
:1008B0005F914F913F912F910F900FBE0F901F901E
:1008C00018951F920F920FB60F9211242F938F93AA
:1008D0009F93EF93FF93E0913601F0913701808170
:1008E000E0913C01F0913D0182FD1BC0908180911F
:1008F0003F018F5F8F7320914001821741F0E0919B
:100900003F01F0E0EA5DFE4F958F80933F01FF913C
:10091000EF919F918F912F910F900FBE0F901F908D
:1009200018958081F4CF1F920F920FB60F92112469
:100930002F933F934F935F936F937F938F939F93E7
:10094000AF93BF93CF93DF93EF93FF9380911A01FF
:10095000C091E701D0E087FF24C01092850010927B
:10096000840080911A018F5F80931A0180911A018F
:10097000082E000C990B8C179D0724F480911A0106
:100980008C30C4F18091840090918500049680346D
:100990009C4908F47AC08091840090918500049667
:1009A00076C080911A01082E000C990B8C179D07B8
:1009B000C4F6E0911A018E2FEE0F990BFC01EE0F99
:1009C000FF1FE80FF91FED53FE4F808186FFC9CF4F
:1009D000E0911A018E2FEE0F990BFC01EE0FFF1F15
:1009E000E80FF91FED53FE4F808160E08F730E9486
:1009F000B400B7CF2091840030918500E0911A01B6
:100A00008E2FEE0F990BFC01EE0FFF1FE80FF91F61
:100A1000ED53FE4F81819281820F931F9093890045
:100A200080938800E0911A018E2FEE0F990BFC0144
:100A3000EE0FFF1FE80FF91FED53FE4F808186FF79
:100A400011C0E0911A018E2FEE0F990BFC01EE0FF1
:100A5000FF1FE80FF91FED53FE4F808161E08F7398
:100A60000E94B400FF91EF91DF91CF91BF91AF91C0
:100A70009F918F917F916F915F914F913F912F91B6
:100A80000F900FBE0F901F90189580E49CE99093F3
:100A90008900809388008FEF80931A01E3CFCF9273
:100AA000DF92EF92FF920F931F93E82FF92F05C06B
:100AB000015011092109310961F1908196239417A0
:100AC000B9F305C0015011092109310911F19081D3
:100AD00096239413F7CFC12CD12CE12CF12C0AC012
:100AE0008FEFC81AD80AE80AF80A0C151D052E055A
:100AF0003F0579F080818623841791F36C2D7D2D3D
:100B00008E2D9F2D1F910F91FF90EF90DF90CF9032
:100B1000089560E070E080E090E01F910F91FF90F9
:100B2000EF90DF90CF900895109229011092280144
:100B300088EE93E0A0E0B0E080932A0190932B012F
:100B4000A0932C01B0932D0184E091E090932701B4
:100B50008093260185EC90E09093330180933201DD
:100B600084EC90E0909335018093340180EC90E028
:100B7000909337018093360181EC90E09093390196
:100B80008093380182EC90E090933B0180933A018E
:100B900086EC90E090933D0180933C0110923F01E0
:100BA0001092400110924101109242018091E701A0
:100BB0008C3048F591E0980F9093E7018093EB011A
:100BC00090E0FC01EE0FFF1FE80FF91FED53FE4F01
:100BD00088EB9BE0928381838091E7018C30B8F4AD
:100BE00091E0980F9093E7018093E80190E0FC0179
:100BF000EE0FFF1FE80FF91FED53FE4F88EB9BE050
:100C00009283818308958FEF8093EB01E5CF8FEF7F
:100C10008093E8010895789484B5826084BD84B59A
:100C2000816084BD85B5826085BD85B5816085BDE7
:100C300080916E00816080936E001092810080919F
:100C40008100826080938100809181008160809327
:100C50008100809180008160809380008091B1004C
:100C600084608093B1008091B00081608093B00077
:100C700080917A00846080937A0080917A0082600B
:100C800080937A0080917A00816080937A008091CD
:100C90007A00806880937A001092C1000E948C00D4
:100CA00061E082E00E94000160E083E00E940001B8
:100CB00061E085E00E94000160E08EE00E9400019A
:100CC0000E948C006AE070E08BEE91E00E942303AA
:100CD00069E070E088EE91E00E9423030E948C009E
:100CE0006AE570E08BEE91E00E94A7026CE370E091
:100CF00088EE91E00E94A7029FE0692E712C23E20A
:100D0000822E912C3DE9232E30E0332E49E8442EEB
:100D100040E0542E53E0E52EF12C60E0C62E60E05A
:100D2000D62E60E082E00E94B400C3010197F1F783
:100D300061E082E00E94B400C4010197F1F760E035
:100D400082E00E94B400F1016491F2018491E82FE5
:100D5000F0E0EE0FFF1FE859FF4F8591949100E4FA
:100D600012E42FE030E0462F0E944F056115710517
:100D70008105910529F06F5F7F4F8F4F9F4F9F70C7
:100D80000E94220826E933E44BE05DE30E948B08D1
:100D900020E030E040E05FE30E948B080E94EA0719
:100DA000072E000C880B990B97FFA2C00E94D0035E
:100DB00082E191E00E947F0386E191E00E947F033F
:100DC00062E370E080E090E00E9468018FE00E94A2
:100DD00031015C0181E10E943101EC018EE00E9451
:100DE00031018C0180E10E9431010A0D1B1DC80FE9
:100DF000D91F60911B0170911C01C017D1070CF025
:100E00007BC0643B71050CF077C06F5F7F4F7093C0
:100E10001C0160931B018BEE91E00E94A702C801A8
:100E20008C1B9D0B843691052CF0C01BD10BC43656
:100E3000D10534F46AE070E080E090E00E9468013F
:100E400080911B0190911C0197FF04C010921C011E
:100E500010921B0160911B0170911C01072E000C68
:100E6000880B990B97FF4BC00E94D00386E191E05D
:100E70000E947F038EE00E943101BC01990F880B14
:100E8000990B97FF40C00E94D00386E191E00E9439
:100E90007F0305E010E0D0E0C0E08EE00E94310169
:100EA000C80FD91F01501109C1F7CE01B7010E9427
:100EB0005009072E000C880B990B0E94220820E095
:100EC00030E048E453E40E94860861E018160CF014
:100ED00060E085E00E94B400C114D10409F421CF80
:100EE0000E940402882309F41CCF0E94000019CF3D
:100EF0004AE00E948C035CCF6150710988CF4AE0C0
:100F00000E948C03B3CF4AE00E948C03BECF052E13
:100F100097FB1EF400940E949E0757FD07D00E9485
:100F2000B90707FC03D04EF40C949E0750954095EA
:100F3000309521953F4F4F4F5F4F08959095809585
:100F4000709561957F4F8F4F9F4F08950E94DB07EB
:100F5000A59F900DB49F900DA49F800D911D11240D
:100F60000895B7FF0C94A6070E94A607821B930B57
:100F70000895A1E21A2EAA1BBB1BFD010DC0AA1FDA
:100F8000BB1FEE1FFF1FA217B307E407F50720F0F2
:100F9000A21BB30BE40BF50B661F771F881F991F6D
:100FA0001A9469F760957095809590959B01AC01B6
:100FB000BD01CF010895A29FB001B39FC001A39FBF
:100FC000700D811D1124911DB29F700D811D112482
:100FD000911D08950E94F1076894B1110C94800846
:100FE00008950E94650888F09F5798F0B92F9927B7
:100FF000B751B0F0E1F0660F771F881F991F1AF004
:10100000BA95C9F714C0B13091F00E947F08B1E0E1
:1010100008950C947F08672F782F8827B85F39F0E0
:10102000B93FCCF3869577956795B395D9F73EF49C
:1010300090958095709561957F4F8F4F9F4F089544
:10104000E89409C097FB3EF4909580957095619562
:101050007F4F8F4F9F4F9923A9F0F92F96E9BB2718
:101060009395F695879577956795B795F111F8CF94
:10107000FAF4BB0F11F460FF1BC06F5F7F4F8F4FFF
:101080009F4F16C0882311F096E911C0772321F0F5
:101090009EE8872F762F05C0662371F096E8862F8D
:1010A00070E060E02AF09A95660F771F881FDAF7E4
:1010B000880F9695879597F9089557FD9058440F96
:1010C000551F59F05F3F71F04795880F97FB991FA7
:1010D00061F09F3F79F08795089512161306140664
:1010E000551FF2CF4695F1DF08C0161617061806F1
:1010F000991FF1CF86957105610508940895E894CC
:10110000BB2766277727CB0197F908950E94F80837
:1011100008F48FEF08950E949E080C9433090E94F2
:10112000250938F00E942C0920F0952311F00C9429
:101130001C090C94220911240C9480080E945D085B
:1011400070F3959FC1F3950F50E0551F629FF0011A
:10115000729FBB27F00DB11D639FAA27F00DB11D33
:10116000AA1F649F6627B00DA11D661F829F2227BC
:10117000B00DA11D621F739FB00DA11D621F839F43
:10118000A00D611D221F749F3327A00D611D231F19
:10119000849F600D211D822F762F6A2F11249F5767
:1011A00050409AF0F1F088234AF0EE0FFF1FBB1F6A
:1011B000661F771F881F91505040A9F79E3F510529
:1011C00080F00C941C090C9480085F3FE4F3983E77
:1011D000D4F3869577956795B795F795E7959F5FD3
:1011E000C1F7FE2B880F911D9695879597F9089565
:1011F000990F0008550FAA0BE0E8FEEF1616170628
:10120000E807F907C0F012161306E407F50798F08F
:10121000621B730B840B950B39F40A2661F0232BA8
:10122000242B252B21F408950A2609F4A140A69524
:101230008FEF811D811D089597F99F6780E870E009
:1012400060E008959FEF80EC089500240A9416163C
:10125000170618060906089500240A9412161306A4
:10126000140605060895092E0394000C11F4882332
:1012700052F0BB0F40F4BF2B11F460FF04C06F5F4E
:101280007F4F8F4F9F4F0895991B79E004C0991F9E
:10129000961708F0961B881F7A95C9F780950895D0
:1012A00097FB072E16F4009407D077FD09D00E9413
:1012B000640907FC05D03EF4909581959F4F0895F1
:1012C000709561957F4F0895AA1BBB1B51E107C024
:1012D000AA1FBB1FA617B70710F0A61BB70B881FC6
:1012E000991F5A95A9F780959095BC01CD01089555
:1012F000EE0FFF1F0590F491E02D0994F894FFCFB5
:10130000000000003A029A01C7018702F801D601E5
:0A131000EA0120636D000D0A0000E1
:107E0000112484B714BE81FFF0D085E080938100F7
:107E100082E08093C00088E18093C10086E0809377
:107E2000C20080E18093C4008EE0C9D0259A86E02C
:107E300020E33CEF91E0309385002093840096BBD3
:107E4000B09BFECF1D9AA8958150A9F7CC24DD24C4
:107E500088248394B5E0AB2EA1E19A2EF3E0BF2EE7
:107E6000A2D0813461F49FD0082FAFD0023811F036
:107E7000013811F484E001C083E08DD089C08234E0
:107E800011F484E103C0853419F485E0A6D080C0E4
:107E9000853579F488D0E82EFF2485D0082F10E0AE
:107EA000102F00270E291F29000F111F8ED06801E7
:107EB0006FC0863521F484E090D080E0DECF843638
:107EC00009F040C070D06FD0082F6DD080E0C81688
:107ED00080E7D80618F4F601B7BEE895C0E0D1E017
:107EE00062D089930C17E1F7F0E0CF16F0E7DF06D8
:107EF00018F0F601B7BEE89568D007B600FCFDCFD4
:107F0000A601A0E0B1E02C9130E011968C91119780
:107F100090E0982F8827822B932B1296FA010C0160
:107F200087BEE89511244E5F5F4FF1E0A038BF0790
:107F300051F7F601A7BEE89507B600FCFDCF97BE46
:107F4000E89526C08437B1F42ED02DD0F82E2BD052
:107F50003CD0F601EF2C8F010F5F1F4F84911BD097
:107F6000EA94F801C1F70894C11CD11CFA94CF0C13
:107F7000D11C0EC0853739F428D08EE10CD085E9AC
:107F80000AD08FE07ACF813511F488E018D01DD067
:107F900080E101D065CF982F8091C00085FFFCCF94
:107FA0009093C60008958091C00087FFFCCF809118
:107FB000C00084FD01C0A8958091C6000895E0E648
:107FC000F0E098E1908380830895EDDF803219F02E
:107FD00088E0F5DFFFCF84E1DECF1F93182FE3DFCA
:107FE0001150E9F7F2DF1F91089580E0E8DFEE27F6
:047FF000FF270994CA
:027FFE00040479
:00000001FF
